{
  "_format": "hh-sol-artifact-1",
  "contractName": "SmartChefInitializable",
  "sourceName": "contracts/SmartChefInitializable.sol",
  "abi": [
    {
      "inputs": [],
      "stateMutability": "nonpayable",
      "type": "constructor"
    },
    {
      "anonymous": false,
      "inputs": [
        {
          "indexed": true,
          "internalType": "address",
          "name": "user",
          "type": "address"
        },
        {
          "indexed": false,
          "internalType": "uint256",
          "name": "amount",
          "type": "uint256"
        }
      ],
      "name": "Deposit",
      "type": "event"
    },
    {
      "anonymous": false,
      "inputs": [
        {
          "indexed": true,
          "internalType": "address",
          "name": "user",
          "type": "address"
        },
        {
          "indexed": false,
          "internalType": "uint256",
          "name": "amount",
          "type": "uint256"
        }
      ],
      "name": "EmergencyWithdraw",
      "type": "event"
    },
    {
      "anonymous": false,
      "inputs": [
        {
          "indexed": false,
          "internalType": "uint256",
          "name": "poolLimitPerUser",
          "type": "uint256"
        }
      ],
      "name": "NewPoolLimit",
      "type": "event"
    },
    {
      "anonymous": false,
      "inputs": [
        {
          "indexed": false,
          "internalType": "uint256",
          "name": "rewardPerBlock",
          "type": "uint256"
        }
      ],
      "name": "NewRewardPerBlock",
      "type": "event"
    },
    {
      "anonymous": false,
      "inputs": [
        {
          "indexed": false,
          "internalType": "uint256",
          "name": "startBlock",
          "type": "uint256"
        },
        {
          "indexed": false,
          "internalType": "uint256",
          "name": "endBlock",
          "type": "uint256"
        }
      ],
      "name": "NewStartAndEndBlocks",
      "type": "event"
    },
    {
      "anonymous": false,
      "inputs": [
        {
          "indexed": false,
          "internalType": "uint256",
          "name": "lockStakedToken",
          "type": "uint256"
        }
      ],
      "name": "NewUpdateLockStaked",
      "type": "event"
    },
    {
      "anonymous": false,
      "inputs": [
        {
          "indexed": true,
          "internalType": "address",
          "name": "previousOwner",
          "type": "address"
        },
        {
          "indexed": true,
          "internalType": "address",
          "name": "newOwner",
          "type": "address"
        }
      ],
      "name": "OwnershipTransferred",
      "type": "event"
    },
    {
      "anonymous": false,
      "inputs": [
        {
          "indexed": false,
          "internalType": "uint256",
          "name": "blockNumber",
          "type": "uint256"
        }
      ],
      "name": "RewardsStop",
      "type": "event"
    },
    {
      "anonymous": false,
      "inputs": [
        {
          "indexed": true,
          "internalType": "address",
          "name": "token",
          "type": "address"
        },
        {
          "indexed": false,
          "internalType": "uint256",
          "name": "amount",
          "type": "uint256"
        }
      ],
      "name": "TokenRecovery",
      "type": "event"
    },
    {
      "anonymous": false,
      "inputs": [
        {
          "indexed": true,
          "internalType": "address",
          "name": "user",
          "type": "address"
        },
        {
          "indexed": false,
          "internalType": "uint256",
          "name": "amount",
          "type": "uint256"
        }
      ],
      "name": "Withdraw",
      "type": "event"
    },
    {
      "inputs": [],
      "name": "PRECISION_FACTOR",
      "outputs": [
        {
          "internalType": "uint256",
          "name": "",
          "type": "uint256"
        }
      ],
      "stateMutability": "view",
      "type": "function"
    },
    {
      "inputs": [],
      "name": "SMART_CHEF_FACTORY",
      "outputs": [
        {
          "internalType": "address",
          "name": "",
          "type": "address"
        }
      ],
      "stateMutability": "view",
      "type": "function"
    },
    {
      "inputs": [],
      "name": "accTokenPerShare",
      "outputs": [
        {
          "internalType": "uint256",
          "name": "",
          "type": "uint256"
        }
      ],
      "stateMutability": "view",
      "type": "function"
    },
    {
      "inputs": [],
      "name": "bonusEndBlock",
      "outputs": [
        {
          "internalType": "uint256",
          "name": "",
          "type": "uint256"
        }
      ],
      "stateMutability": "view",
      "type": "function"
    },
    {
      "inputs": [
        {
          "internalType": "uint256",
          "name": "_amount",
          "type": "uint256"
        }
      ],
      "name": "deposit",
      "outputs": [],
      "stateMutability": "nonpayable",
      "type": "function"
    },
    {
      "inputs": [
        {
          "internalType": "uint256",
          "name": "_amount",
          "type": "uint256"
        }
      ],
      "name": "emergencyRewardWithdraw",
      "outputs": [],
      "stateMutability": "nonpayable",
      "type": "function"
    },
    {
      "inputs": [],
      "name": "emergencyWithdraw",
      "outputs": [],
      "stateMutability": "nonpayable",
      "type": "function"
    },
    {
      "inputs": [],
      "name": "hasUserLimit",
      "outputs": [
        {
          "internalType": "bool",
          "name": "",
          "type": "bool"
        }
      ],
      "stateMutability": "view",
      "type": "function"
    },
    {
      "inputs": [
        {
          "internalType": "contract IERC20Metadata",
          "name": "_stakedToken",
          "type": "address"
        },
        {
          "internalType": "contract IERC20Metadata",
          "name": "_rewardToken",
          "type": "address"
        },
        {
          "internalType": "uint256",
          "name": "_rewardPerBlock",
          "type": "uint256"
        },
        {
          "internalType": "uint256",
          "name": "_startBlock",
          "type": "uint256"
        },
        {
          "internalType": "uint256",
          "name": "_bonusEndBlock",
          "type": "uint256"
        },
        {
          "internalType": "uint256",
          "name": "_poolLimitPerUser",
          "type": "uint256"
        },
        {
          "internalType": "uint256",
          "name": "_numberBlocksForUserLimit",
          "type": "uint256"
        },
        {
          "internalType": "address",
          "name": "_admin",
          "type": "address"
        },
        {
          "internalType": "uint256",
          "name": "_lockStakedToken",
          "type": "uint256"
        }
      ],
      "name": "initialize",
      "outputs": [],
      "stateMutability": "nonpayable",
      "type": "function"
    },
    {
      "inputs": [],
      "name": "isInitialized",
      "outputs": [
        {
          "internalType": "bool",
          "name": "",
          "type": "bool"
        }
      ],
      "stateMutability": "view",
      "type": "function"
    },
    {
      "inputs": [],
      "name": "lastRewardBlock",
      "outputs": [
        {
          "internalType": "uint256",
          "name": "",
          "type": "uint256"
        }
      ],
      "stateMutability": "view",
      "type": "function"
    },
    {
      "inputs": [],
      "name": "lockStakedToken",
      "outputs": [
        {
          "internalType": "uint256",
          "name": "",
          "type": "uint256"
        }
      ],
      "stateMutability": "view",
      "type": "function"
    },
    {
      "inputs": [],
      "name": "numberBlocksForUserLimit",
      "outputs": [
        {
          "internalType": "uint256",
          "name": "",
          "type": "uint256"
        }
      ],
      "stateMutability": "view",
      "type": "function"
    },
    {
      "inputs": [],
      "name": "owner",
      "outputs": [
        {
          "internalType": "address",
          "name": "",
          "type": "address"
        }
      ],
      "stateMutability": "view",
      "type": "function"
    },
    {
      "inputs": [
        {
          "internalType": "address",
          "name": "_user",
          "type": "address"
        }
      ],
      "name": "pendingReward",
      "outputs": [
        {
          "internalType": "uint256",
          "name": "",
          "type": "uint256"
        }
      ],
      "stateMutability": "view",
      "type": "function"
    },
    {
      "inputs": [],
      "name": "poolLimitPerUser",
      "outputs": [
        {
          "internalType": "uint256",
          "name": "",
          "type": "uint256"
        }
      ],
      "stateMutability": "view",
      "type": "function"
    },
    {
      "inputs": [
        {
          "internalType": "address",
          "name": "_token",
          "type": "address"
        }
      ],
      "name": "recoverToken",
      "outputs": [],
      "stateMutability": "nonpayable",
      "type": "function"
    },
    {
      "inputs": [],
      "name": "renounceOwnership",
      "outputs": [],
      "stateMutability": "nonpayable",
      "type": "function"
    },
    {
      "inputs": [],
      "name": "rewardPerBlock",
      "outputs": [
        {
          "internalType": "uint256",
          "name": "",
          "type": "uint256"
        }
      ],
      "stateMutability": "view",
      "type": "function"
    },
    {
      "inputs": [],
      "name": "rewardToken",
      "outputs": [
        {
          "internalType": "contract IERC20Metadata",
          "name": "",
          "type": "address"
        }
      ],
      "stateMutability": "view",
      "type": "function"
    },
    {
      "inputs": [],
      "name": "stakedToken",
      "outputs": [
        {
          "internalType": "contract IERC20Metadata",
          "name": "",
          "type": "address"
        }
      ],
      "stateMutability": "view",
      "type": "function"
    },
    {
      "inputs": [],
      "name": "stakedTokenAmount",
      "outputs": [
        {
          "internalType": "uint256",
          "name": "",
          "type": "uint256"
        }
      ],
      "stateMutability": "view",
      "type": "function"
    },
    {
      "inputs": [],
      "name": "startBlock",
      "outputs": [
        {
          "internalType": "uint256",
          "name": "",
          "type": "uint256"
        }
      ],
      "stateMutability": "view",
      "type": "function"
    },
    {
      "inputs": [],
      "name": "stopReward",
      "outputs": [],
      "stateMutability": "nonpayable",
      "type": "function"
    },
    {
      "inputs": [
        {
          "internalType": "address",
          "name": "newOwner",
          "type": "address"
        }
      ],
      "name": "transferOwnership",
      "outputs": [],
      "stateMutability": "nonpayable",
      "type": "function"
    },
    {
      "inputs": [
        {
          "internalType": "uint256",
          "name": "_lockStakedToken",
          "type": "uint256"
        }
      ],
      "name": "updateLockStaked",
      "outputs": [],
      "stateMutability": "nonpayable",
      "type": "function"
    },
    {
      "inputs": [
        {
          "internalType": "bool",
          "name": "_userLimit",
          "type": "bool"
        },
        {
          "internalType": "uint256",
          "name": "_poolLimitPerUser",
          "type": "uint256"
        }
      ],
      "name": "updatePoolLimitPerUser",
      "outputs": [],
      "stateMutability": "nonpayable",
      "type": "function"
    },
    {
      "inputs": [
        {
          "internalType": "uint256",
          "name": "_rewardPerBlock",
          "type": "uint256"
        }
      ],
      "name": "updateRewardPerBlock",
      "outputs": [],
      "stateMutability": "nonpayable",
      "type": "function"
    },
    {
      "inputs": [
        {
          "internalType": "uint256",
          "name": "_startBlock",
          "type": "uint256"
        },
        {
          "internalType": "uint256",
          "name": "_bonusEndBlock",
          "type": "uint256"
        }
      ],
      "name": "updateStartAndEndBlocks",
      "outputs": [],
      "stateMutability": "nonpayable",
      "type": "function"
    },
    {
      "inputs": [
        {
          "internalType": "address",
          "name": "",
          "type": "address"
        }
      ],
      "name": "userInfo",
      "outputs": [
        {
          "internalType": "uint256",
          "name": "amount",
          "type": "uint256"
        },
        {
          "internalType": "uint256",
          "name": "rewardDebt",
          "type": "uint256"
        }
      ],
      "stateMutability": "view",
      "type": "function"
    },
    {
      "inputs": [],
      "name": "userLimit",
      "outputs": [
        {
          "internalType": "bool",
          "name": "",
          "type": "bool"
        }
      ],
      "stateMutability": "view",
      "type": "function"
    },
    {
      "inputs": [
        {
          "internalType": "uint256",
          "name": "_amount",
          "type": "uint256"
        }
      ],
      "name": "withdraw",
      "outputs": [],
      "stateMutability": "nonpayable",
      "type": "function"
    }
  ],
  "bytecode": "0x60a06040523480156200001157600080fd5b5062000032620000266200007360201b60201c565b6200007b60201b60201c565b600180819055503373ffffffffffffffffffffffffffffffffffffffff1660808173ffffffffffffffffffffffffffffffffffffffff16815250506200013f565b600033905090565b60008060009054906101000a900473ffffffffffffffffffffffffffffffffffffffff169050816000806101000a81548173ffffffffffffffffffffffffffffffffffffffff021916908373ffffffffffffffffffffffffffffffffffffffff1602179055508173ffffffffffffffffffffffffffffffffffffffff168173ffffffffffffffffffffffffffffffffffffffff167f8be0079c531659141344cd1fd0a4f28419497f9722a3daafe3b4186f6b6457e060405160405180910390a35050565b6080516135626200016260003960008181610865015261136901526135626000f3fe608060405234801561001057600080fd5b50600436106101f05760003560e01c80638f6629151161010f578063b6b55f25116100a2578063db2e21bc11610071578063db2e21bc14610516578063f2fde38b14610520578063f40f0f521461053c578063f7c618c11461056c576101f0565b8063b6b55f25146104a0578063bd617191146104bc578063cc7a262e146104da578063ccd34cd5146104f8576101f0565b80639c367bc2116100de5780639c367bc21461042c578063a0b409051461044a578063a9f8d18114610466578063ac38960014610484576101f0565b80638f662915146103b857806392e8990e146103d65780639513997f146103f45780639be65a6014610410576101f0565b80634a7c01ec1161018757806380dc06721161015657806380dc0672146103545780638ad1071b1461035e5780638ae39cac1461037c5780638da5cb5b1461039a576101f0565b80634a7c01ec146102f257806351c764e01461031057806366fe9f8a1461032c578063715018a61461034a576101f0565b80633279beab116101c35780633279beab1461027c578063392e53cd1461029857806344ddc41e146102b657806348cd4cb1146102d4576101f0565b806301f8a976146101f55780631959a002146102115780631aed6553146102425780632e1a7d4d14610260575b600080fd5b61020f600480360381019061020a919061209a565b61058a565b005b61022b60048036038101906102269190612125565b610617565b604051610239929190612161565b60405180910390f35b61024a61063b565b604051610257919061218a565b60405180910390f35b61027a6004803603810190610275919061209a565b610641565b005b6102966004803603810190610291919061209a565b6107cd565b005b6102a06107e1565b6040516102ad91906121c0565b60405180910390f35b6102be6107f4565b6040516102cb919061218a565b60405180910390f35b6102dc6107fa565b6040516102e9919061218a565b60405180910390f35b6102fa610800565b60405161030791906121c0565b60405180910390f35b61032a60048036038101906103259190612219565b610813565b005b610334610b7b565b604051610341919061218a565b60405180910390f35b610352610b81565b005b61035c610b95565b005b610366610bad565b604051610373919061218a565b60405180910390f35b610384610bb3565b604051610391919061218a565b60405180910390f35b6103a2610bb9565b6040516103af91906122f2565b60405180910390f35b6103c0610be2565b6040516103cd919061218a565b60405180910390f35b6103de610be8565b6040516103eb91906121c0565b60405180910390f35b61040e6004803603810190610409919061230d565b610c2b565b005b61042a60048036038101906104259190612125565b610d60565b005b610434610f9c565b604051610441919061218a565b60405180910390f35b610464600480360381019061045f9190612379565b610fa2565b005b61046e6110af565b60405161047b919061218a565b60405180910390f35b61049e6004803603810190610499919061209a565b6110b5565b005b6104ba60048036038101906104b5919061209a565b611188565b005b6104c4611367565b6040516104d191906122f2565b60405180910390f35b6104e261138b565b6040516104ef9190612418565b60405180910390f35b6105006113b1565b60405161050d919061218a565b60405180910390f35b61051e6113b7565b005b61053a60048036038101906105359190612125565b611490565b005b61055660048036038101906105519190612125565b611513565b604051610563919061218a565b60405180910390f35b61057461162c565b6040516105819190612418565b60405180910390f35b610592611652565b60055443106105d6576040517f08c379a00000000000000000000000000000000000000000000000000000000081526004016105cd90612490565b60405180910390fd5b806009819055507f0c4d677eef92893ac7ec52faf8140fc6c851ab4736302b4f3a89dfb20696a0df8160405161060c919061218a565b60405180910390a150565b600f6020528060005260406000206000915090508060000154908060010154905082565b60045481565b6106496116d0565b6000600f60003373ffffffffffffffffffffffffffffffffffffffff1673ffffffffffffffffffffffffffffffffffffffff168152602001908152602001600020905081816000015410156106d3576040517f08c379a00000000000000000000000000000000000000000000000000000000081526004016106ca906124fc565b60405180910390fd5b6106db61171f565b60008160010154600a5460035484600001546106f7919061254b565b61070191906125bc565b61070b91906125ed565b905060008311156107385782826000015461072691906125ed565b82600001819055506107378361179b565b5b600081111561074b5761074a81611844565b5b600a546003548360000154610760919061254b565b61076a91906125bc565b82600101819055503373ffffffffffffffffffffffffffffffffffffffff167f884edad9ce6fa2440d8a54cc123490eb96d2768479d49ff9c7366125a9424364846040516107b8919061218a565b60405180910390a250506107ca6119ec565b50565b6107d5611652565b6107de81611844565b50565b600260019054906101000a900460ff1681565b600e5481565b60055481565b600260009054906101000a900460ff1681565b600260019054906101000a900460ff1615610863576040517f08c379a000000000000000000000000000000000000000000000000000000000815260040161085a9061266d565b60405180910390fd5b7f000000000000000000000000000000000000000000000000000000000000000073ffffffffffffffffffffffffffffffffffffffff163373ffffffffffffffffffffffffffffffffffffffff16146108f1576040517f08c379a00000000000000000000000000000000000000000000000000000000081526004016108e8906126d9565b60405180910390fd5b80851015610934576040517f08c379a000000000000000000000000000000000000000000000000000000000815260040161092b9061276b565b60405180910390fd5b43861015610977576040517f08c379a000000000000000000000000000000000000000000000000000000000815260040161096e906127fd565b60405180910390fd5b6001600260016101000a81548160ff02191690831515021790555088600c60006101000a81548173ffffffffffffffffffffffffffffffffffffffff021916908373ffffffffffffffffffffffffffffffffffffffff16021790555087600b60006101000a81548173ffffffffffffffffffffffffffffffffffffffff021916908373ffffffffffffffffffffffffffffffffffffffff16021790555086600981905550856005819055508460048190555080600e819055506000841115610a63576001600260006101000a81548160ff02191690831515021790555083600781905550826008819055505b6000600b60009054906101000a900473ffffffffffffffffffffffffffffffffffffffff1673ffffffffffffffffffffffffffffffffffffffff1663313ce5676040518163ffffffff1660e01b8152600401602060405180830381865afa158015610ad2573d6000803e3d6000fd5b505050506040513d601f19601f82011682018060405250810190610af69190612856565b60ff169050601e8110610b3e576040517f08c379a0000000000000000000000000000000000000000000000000000000008152600401610b35906128cf565b60405180910390fd5b80601e610b4b91906125ed565b600a610b579190612a22565b600a81905550600554600681905550610b6f83611490565b50505050505050505050565b60075481565b610b89611652565b610b9360006119f5565b565b610b9d611652565b4360048190555043600e81905550565b60085481565b60095481565b60008060009054906101000a900473ffffffffffffffffffffffffffffffffffffffff16905090565b60035481565b6000600260009054906101000a900460ff161580610c155750600854600554610c119190612a6d565b4310155b15610c235760009050610c28565b600190505b90565b610c33611652565b6005544310610c77576040517f08c379a0000000000000000000000000000000000000000000000000000000008152600401610c6e90612490565b60405180910390fd5b808210610cb9576040517f08c379a0000000000000000000000000000000000000000000000000000000008152600401610cb090612b13565b60405180910390fd5b814310610cfb576040517f08c379a0000000000000000000000000000000000000000000000000000000008152600401610cf290612ba5565b60405180910390fd5b600e548111610d0c5780600e819055505b81600581905550806004819055506005546006819055507f7cd0ab87d19036f3dfadadb232c78aa4879dda3f0c994a9d637532410ee2ce068282604051610d54929190612161565b60405180910390a15050565b610d68611652565b600b60009054906101000a900473ffffffffffffffffffffffffffffffffffffffff1673ffffffffffffffffffffffffffffffffffffffff168173ffffffffffffffffffffffffffffffffffffffff1603610df8576040517f08c379a0000000000000000000000000000000000000000000000000000000008152600401610def90612c37565b60405180910390fd5b60008173ffffffffffffffffffffffffffffffffffffffff166370a08231306040518263ffffffff1660e01b8152600401610e3391906122f2565b602060405180830381865afa158015610e50573d6000803e3d6000fd5b505050506040513d601f19601f82011682018060405250810190610e749190612c6c565b9050600c60009054906101000a900473ffffffffffffffffffffffffffffffffffffffff1673ffffffffffffffffffffffffffffffffffffffff168273ffffffffffffffffffffffffffffffffffffffff1603610edc57600d5481610ed991906125ed565b90505b60008103610f1f576040517f08c379a0000000000000000000000000000000000000000000000000000000008152600401610f1690612d0b565b60405180910390fd5b610f4a33828473ffffffffffffffffffffffffffffffffffffffff16611ab99092919063ffffffff16565b8173ffffffffffffffffffffffffffffffffffffffff167f14f11966a996e0629572e51064726d2057a80fbd34efc066682c06a71dbb6e9882604051610f90919061218a565b60405180910390a25050565b600d5481565b610faa611652565b600260009054906101000a900460ff16610ff9576040517f08c379a0000000000000000000000000000000000000000000000000000000008152600401610ff090612d77565b60405180910390fd5b811561104f576007548111611043576040517f08c379a000000000000000000000000000000000000000000000000000000000815260040161103a90612de3565b60405180910390fd5b80600781905550611072565b81600260006101000a81548160ff02191690831515021790555060006007819055505b7f241f67ee5f41b7a5cabf911367329be7215900f602ebfc47f89dce2a6bcd847c6007546040516110a3919061218a565b60405180910390a15050565b60065481565b6110bd611652565b600454600e5410611103576040517f08c379a00000000000000000000000000000000000000000000000000000000081526004016110fa90612e75565b60405180910390fd5b43600e5411611147576040517f08c379a000000000000000000000000000000000000000000000000000000000815260040161113e90612f07565b60405180910390fd5b80600e819055507f1e7dd1d6b727b270cf9a437c8e6483510e23ce76306a69a98d70f251b79cc99b8160405161117d919061218a565b60405180910390a150565b6111906116d0565b6000600f60003373ffffffffffffffffffffffffffffffffffffffff1673ffffffffffffffffffffffffffffffffffffffff16815260200190815260200160002090506111db610be8565b600260006101000a81548160ff021916908315150217905550600260009054906101000a900460ff161580611221575060075481600001548361121e9190612a6d565b11155b611260576040517f08c379a000000000000000000000000000000000000000000000000000000000815260040161125790612f73565b60405180910390fd5b61126861171f565b6000816000015411156112bc5760008160010154600a546003548460000154611291919061254b565b61129b91906125bc565b6112a591906125ed565b905060008111156112ba576112b981611844565b5b505b60008211156112e6576112ce82611b3f565b81600001546112dd9190612a6d565b81600001819055505b600a5460035482600001546112fb919061254b565b61130591906125bc565b81600101819055503373ffffffffffffffffffffffffffffffffffffffff167fe1fffcc4923d04b559f4d29a8bfc6cda04eb5b0d3c460751c2402c5c5cc9109c83604051611353919061218a565b60405180910390a2506113646119ec565b50565b7f000000000000000000000000000000000000000000000000000000000000000081565b600c60009054906101000a900473ffffffffffffffffffffffffffffffffffffffff1681565b600a5481565b6113bf6116d0565b6000600f60003373ffffffffffffffffffffffffffffffffffffffff1673ffffffffffffffffffffffffffffffffffffffff168152602001908152602001600020905060008160000154905060008260000181905550600082600101819055506000811115611432576114318161179b565b5b3373ffffffffffffffffffffffffffffffffffffffff167f5fafa99d0643513820be26656b45130b01e1c03062e1266bf36f88cbd3bd9695836000015460405161147c919061218a565b60405180910390a2505061148e6119ec565b565b611498611652565b600073ffffffffffffffffffffffffffffffffffffffff168173ffffffffffffffffffffffffffffffffffffffff1603611507576040517f08c379a00000000000000000000000000000000000000000000000000000000081526004016114fe90613005565b60405180910390fd5b611510816119f5565b50565b600080600f60008473ffffffffffffffffffffffffffffffffffffffff1673ffffffffffffffffffffffffffffffffffffffff16815260200190815260200160002090506006544311801561156b57506000600d5414155b156115f557600061157e60065443611cf2565b9050600060095482611590919061254b565b90506000600d54600a54836115a5919061254b565b6115af91906125bc565b6003546115bc9190612a6d565b90508360010154600a548286600001546115d6919061254b565b6115e091906125bc565b6115ea91906125ed565b945050505050611627565b8060010154600a54600354836000015461160f919061254b565b61161991906125bc565b61162391906125ed565b9150505b919050565b600b60009054906101000a900473ffffffffffffffffffffffffffffffffffffffff1681565b61165a611d39565b73ffffffffffffffffffffffffffffffffffffffff16611678610bb9565b73ffffffffffffffffffffffffffffffffffffffff16146116ce576040517f08c379a00000000000000000000000000000000000000000000000000000000081526004016116c590613071565b60405180910390fd5b565b600260015403611715576040517f08c379a000000000000000000000000000000000000000000000000000000000815260040161170c906130dd565b60405180910390fd5b6002600181905550565b600654431115611799576000600d540361173f5743600681905550611799565b600061174d60065443611cf2565b905060006009548261175f919061254b565b9050600d54600a5482611772919061254b565b61177c91906125bc565b6003546117899190612a6d565b6003819055504360068190555050505b565b600e544310156117e0576040517f08c379a00000000000000000000000000000000000000000000000000000000081526004016117d79061316f565b60405180910390fd5b80600d546117ee91906125ed565b600d819055506118413382600c60009054906101000a900473ffffffffffffffffffffffffffffffffffffffff1673ffffffffffffffffffffffffffffffffffffffff16611ab99092919063ffffffff16565b50565b6118913382600b60009054906101000a900473ffffffffffffffffffffffffffffffffffffffff1673ffffffffffffffffffffffffffffffffffffffff16611ab99092919063ffffffff16565b600c60009054906101000a900473ffffffffffffffffffffffffffffffffffffffff1673ffffffffffffffffffffffffffffffffffffffff16600b60009054906101000a900473ffffffffffffffffffffffffffffffffffffffff1673ffffffffffffffffffffffffffffffffffffffff16036119e957600d54600c60009054906101000a900473ffffffffffffffffffffffffffffffffffffffff1673ffffffffffffffffffffffffffffffffffffffff166370a08231306040518263ffffffff1660e01b815260040161196691906122f2565b602060405180830381865afa158015611983573d6000803e3d6000fd5b505050506040513d601f19601f820116820180604052508101906119a79190612c6c565b10156119e8576040517f08c379a00000000000000000000000000000000000000000000000000000000081526004016119df906131db565b60405180910390fd5b5b50565b60018081905550565b60008060009054906101000a900473ffffffffffffffffffffffffffffffffffffffff169050816000806101000a81548173ffffffffffffffffffffffffffffffffffffffff021916908373ffffffffffffffffffffffffffffffffffffffff1602179055508173ffffffffffffffffffffffffffffffffffffffff168173ffffffffffffffffffffffffffffffffffffffff167f8be0079c531659141344cd1fd0a4f28419497f9722a3daafe3b4186f6b6457e060405160405180910390a35050565b611b3a8363a9059cbb60e01b8484604051602401611ad89291906131fb565b604051602081830303815290604052907bffffffffffffffffffffffffffffffffffffffffffffffffffffffff19166020820180517bffffffffffffffffffffffffffffffffffffffffffffffffffffffff8381831617835250505050611d41565b505050565b600080600c60009054906101000a900473ffffffffffffffffffffffffffffffffffffffff1673ffffffffffffffffffffffffffffffffffffffff166370a08231306040518263ffffffff1660e01b8152600401611b9d91906122f2565b602060405180830381865afa158015611bba573d6000803e3d6000fd5b505050506040513d601f19601f82011682018060405250810190611bde9190612c6c565b9050611c2f333085600c60009054906101000a900473ffffffffffffffffffffffffffffffffffffffff1673ffffffffffffffffffffffffffffffffffffffff16611e09909392919063ffffffff16565b80600c60009054906101000a900473ffffffffffffffffffffffffffffffffffffffff1673ffffffffffffffffffffffffffffffffffffffff166370a08231306040518263ffffffff1660e01b8152600401611c8b91906122f2565b602060405180830381865afa158015611ca8573d6000803e3d6000fd5b505050506040513d601f19601f82011682018060405250810190611ccc9190612c6c565b611cd691906125ed565b915081600d54611ce69190612a6d565b600d8190555050919050565b60006004548211611d10578282611d0991906125ed565b9050611d33565b6004548310611d225760009050611d33565b82600454611d3091906125ed565b90505b92915050565b600033905090565b6000611da3826040518060400160405280602081526020017f5361666545524332303a206c6f772d6c6576656c2063616c6c206661696c65648152508573ffffffffffffffffffffffffffffffffffffffff16611e929092919063ffffffff16565b9050600081511480611dc5575080806020019051810190611dc49190613239565b5b611e04576040517f08c379a0000000000000000000000000000000000000000000000000000000008152600401611dfb906132d8565b60405180910390fd5b505050565b611e8c846323b872dd60e01b858585604051602401611e2a939291906132f8565b604051602081830303815290604052907bffffffffffffffffffffffffffffffffffffffffffffffffffffffff19166020820180517bffffffffffffffffffffffffffffffffffffffffffffffffffffffff8381831617835250505050611d41565b50505050565b6060611ea18484600085611eaa565b90509392505050565b606082471015611eef576040517f08c379a0000000000000000000000000000000000000000000000000000000008152600401611ee6906133a1565b60405180910390fd5b6000808673ffffffffffffffffffffffffffffffffffffffff168587604051611f189190613432565b60006040518083038185875af1925050503d8060008114611f55576040519150601f19603f3d011682016040523d82523d6000602084013e611f5a565b606091505b5091509150611f6b87838387611f77565b92505050949350505050565b60608315611fd9576000835103611fd157611f9185611fec565b611fd0576040517f08c379a0000000000000000000000000000000000000000000000000000000008152600401611fc790613495565b60405180910390fd5b5b829050611fe4565b611fe3838361200f565b5b949350505050565b6000808273ffffffffffffffffffffffffffffffffffffffff163b119050919050565b6000825111156120225781518083602001fd5b806040517f08c379a0000000000000000000000000000000000000000000000000000000008152600401612056919061350a565b60405180910390fd5b600080fd5b6000819050919050565b61207781612064565b811461208257600080fd5b50565b6000813590506120948161206e565b92915050565b6000602082840312156120b0576120af61205f565b5b60006120be84828501612085565b91505092915050565b600073ffffffffffffffffffffffffffffffffffffffff82169050919050565b60006120f2826120c7565b9050919050565b612102816120e7565b811461210d57600080fd5b50565b60008135905061211f816120f9565b92915050565b60006020828403121561213b5761213a61205f565b5b600061214984828501612110565b91505092915050565b61215b81612064565b82525050565b60006040820190506121766000830185612152565b6121836020830184612152565b9392505050565b600060208201905061219f6000830184612152565b92915050565b60008115159050919050565b6121ba816121a5565b82525050565b60006020820190506121d560008301846121b1565b92915050565b60006121e6826120e7565b9050919050565b6121f6816121db565b811461220157600080fd5b50565b600081359050612213816121ed565b92915050565b60008060008060008060008060006101208a8c03121561223c5761223b61205f565b5b600061224a8c828d01612204565b995050602061225b8c828d01612204565b985050604061226c8c828d01612085565b975050606061227d8c828d01612085565b965050608061228e8c828d01612085565b95505060a061229f8c828d01612085565b94505060c06122b08c828d01612085565b93505060e06122c18c828d01612110565b9250506101006122d38c828d01612085565b9150509295985092959850929598565b6122ec816120e7565b82525050565b600060208201905061230760008301846122e3565b92915050565b600080604083850312156123245761232361205f565b5b600061233285828601612085565b925050602061234385828601612085565b9150509250929050565b612356816121a5565b811461236157600080fd5b50565b6000813590506123738161234d565b92915050565b600080604083850312156123905761238f61205f565b5b600061239e85828601612364565b92505060206123af85828601612085565b9150509250929050565b6000819050919050565b60006123de6123d96123d4846120c7565b6123b9565b6120c7565b9050919050565b60006123f0826123c3565b9050919050565b6000612402826123e5565b9050919050565b612412816123f7565b82525050565b600060208201905061242d6000830184612409565b92915050565b600082825260208201905092915050565b7f506f6f6c20686173207374617274656400000000000000000000000000000000600082015250565b600061247a601083612433565b915061248582612444565b602082019050919050565b600060208201905081810360008301526124a98161246d565b9050919050565b7f416d6f756e7420746f20776974686472617720746f6f20686967680000000000600082015250565b60006124e6601b83612433565b91506124f1826124b0565b602082019050919050565b60006020820190508181036000830152612515816124d9565b9050919050565b7f4e487b7100000000000000000000000000000000000000000000000000000000600052601160045260246000fd5b600061255682612064565b915061256183612064565b925082820261256f81612064565b915082820484148315176125865761258561251c565b5b5092915050565b7f4e487b7100000000000000000000000000000000000000000000000000000000600052601260045260246000fd5b60006125c782612064565b91506125d283612064565b9250826125e2576125e161258d565b5b828204905092915050565b60006125f882612064565b915061260383612064565b925082820390508181111561261b5761261a61251c565b5b92915050565b7f416c726561647920696e697469616c697a656400000000000000000000000000600082015250565b6000612657601383612433565b915061266282612621565b602082019050919050565b600060208201905081810360008301526126868161264a565b9050919050565b7f4e6f7420666163746f7279000000000000000000000000000000000000000000600082015250565b60006126c3600b83612433565b91506126ce8261268d565b602082019050919050565b600060208201905081810360008301526126f2816126b6565b9050919050565b7f4c6f636b6564205374616b696e67206d757374206265206c6f7765722074686160008201527f6e20656e6420626c6f636b200000000000000000000000000000000000000000602082015250565b6000612755602c83612433565b9150612760826126f9565b604082019050919050565b6000602082019050818103600083015261278481612748565b9050919050565b7f537461727420626c6f636b206d75737420626520686967686572207468616e2060008201527f656e6420626c6f636b2000000000000000000000000000000000000000000000602082015250565b60006127e7602a83612433565b91506127f28261278b565b604082019050919050565b60006020820190508181036000830152612816816127da565b9050919050565b600060ff82169050919050565b6128338161281d565b811461283e57600080fd5b50565b6000815190506128508161282a565b92915050565b60006020828403121561286c5761286b61205f565b5b600061287a84828501612841565b91505092915050565b7f4d75737420626520696e666572696f7220746f20333000000000000000000000600082015250565b60006128b9601683612433565b91506128c482612883565b602082019050919050565b600060208201905081810360008301526128e8816128ac565b9050919050565b60008160011c9050919050565b6000808291508390505b6001851115612946578086048111156129225761292161251c565b5b60018516156129315780820291505b808102905061293f856128ef565b9450612906565b94509492505050565b60008261295f5760019050612a1b565b8161296d5760009050612a1b565b8160018114612983576002811461298d576129bc565b6001915050612a1b565b60ff84111561299f5761299e61251c565b5b8360020a9150848211156129b6576129b561251c565b5b50612a1b565b5060208310610133831016604e8410600b84101617156129f15782820a9050838111156129ec576129eb61251c565b5b612a1b565b6129fe84848460016128fc565b92509050818404811115612a1557612a1461251c565b5b81810290505b9392505050565b6000612a2d82612064565b9150612a3883612064565b9250612a657fffffffffffffffffffffffffffffffffffffffffffffffffffffffffffffffff848461294f565b905092915050565b6000612a7882612064565b9150612a8383612064565b9250828201905080821115612a9b57612a9a61251c565b5b92915050565b7f4e6577207374617274426c6f636b206d757374206265206c6f7765722074686160008201527f6e206e657720656e64426c6f636b000000000000000000000000000000000000602082015250565b6000612afd602e83612433565b9150612b0882612aa1565b604082019050919050565b60006020820190508181036000830152612b2c81612af0565b9050919050565b7f4e6577207374617274426c6f636b206d7573742062652068696768657220746860008201527f616e2063757272656e7420626c6f636b00000000000000000000000000000000602082015250565b6000612b8f603083612433565b9150612b9a82612b33565b604082019050919050565b60006020820190508181036000830152612bbe81612b82565b9050919050565b7f4f7065726174696f6e733a2043616e6e6f74207265636f76657220726577617260008201527f6420746f6b656e00000000000000000000000000000000000000000000000000602082015250565b6000612c21602783612433565b9150612c2c82612bc5565b604082019050919050565b60006020820190508181036000830152612c5081612c14565b9050919050565b600081519050612c668161206e565b92915050565b600060208284031215612c8257612c8161205f565b5b6000612c9084828501612c57565b91505092915050565b7f4f7065726174696f6e733a2043616e6e6f74207265636f766572207a65726f2060008201527f62616c616e636500000000000000000000000000000000000000000000000000602082015250565b6000612cf5602783612433565b9150612d0082612c99565b604082019050919050565b60006020820190508181036000830152612d2481612ce8565b9050919050565b7f4d75737420626520736574000000000000000000000000000000000000000000600082015250565b6000612d61600b83612433565b9150612d6c82612d2b565b602082019050919050565b60006020820190508181036000830152612d9081612d54565b9050919050565b7f4e6577206c696d6974206d757374206265206869676865720000000000000000600082015250565b6000612dcd601883612433565b9150612dd882612d97565b602082019050919050565b60006020820190508181036000830152612dfc81612dc0565b9050919050565b7f6c6f636b5374616b6564546f6b656e206d757374206265206c6f77657220746860008201527f616e20626f6e7573456e64626c6f636b00000000000000000000000000000000602082015250565b6000612e5f603083612433565b9150612e6a82612e03565b604082019050919050565b60006020820190508181036000830152612e8e81612e52565b9050919050565b7f6c6f636b5374616b6564546f6b656e206d75737420626520686967686572207460008201527f68616e2063757272656e7420626c6f636b000000000000000000000000000000602082015250565b6000612ef1603183612433565b9150612efc82612e95565b604082019050919050565b60006020820190508181036000830152612f2081612ee4565b9050919050565b7f4465706f7369743a20416d6f756e742061626f7665206c696d69740000000000600082015250565b6000612f5d601b83612433565b9150612f6882612f27565b602082019050919050565b60006020820190508181036000830152612f8c81612f50565b9050919050565b7f4f776e61626c653a206e6577206f776e657220697320746865207a65726f206160008201527f6464726573730000000000000000000000000000000000000000000000000000602082015250565b6000612fef602683612433565b9150612ffa82612f93565b604082019050919050565b6000602082019050818103600083015261301e81612fe2565b9050919050565b7f4f776e61626c653a2063616c6c6572206973206e6f7420746865206f776e6572600082015250565b600061305b602083612433565b915061306682613025565b602082019050919050565b6000602082019050818103600083015261308a8161304e565b9050919050565b7f5265656e7472616e637947756172643a207265656e7472616e742063616c6c00600082015250565b60006130c7601f83612433565b91506130d282613091565b602082019050919050565b600060208201905081810360008301526130f6816130ba565b9050919050565b7f706f6f6c206f6e206c6f636b2c207761697420756e6c6f636b206f6e20626c6f60008201527f636b206c6f636b5374616b6564546f6b656e0000000000000000000000000000602082015250565b6000613159603283612433565b9150613164826130fd565b604082019050919050565b600060208201905081810360008301526131888161314c565b9050919050565b7f7265776172647320656d70747900000000000000000000000000000000000000600082015250565b60006131c5600d83612433565b91506131d08261318f565b602082019050919050565b600060208201905081810360008301526131f4816131b8565b9050919050565b600060408201905061321060008301856122e3565b61321d6020830184612152565b9392505050565b6000815190506132338161234d565b92915050565b60006020828403121561324f5761324e61205f565b5b600061325d84828501613224565b91505092915050565b7f5361666545524332303a204552433230206f7065726174696f6e20646964206e60008201527f6f74207375636365656400000000000000000000000000000000000000000000602082015250565b60006132c2602a83612433565b91506132cd82613266565b604082019050919050565b600060208201905081810360008301526132f1816132b5565b9050919050565b600060608201905061330d60008301866122e3565b61331a60208301856122e3565b6133276040830184612152565b949350505050565b7f416464726573733a20696e73756666696369656e742062616c616e636520666f60008201527f722063616c6c0000000000000000000000000000000000000000000000000000602082015250565b600061338b602683612433565b91506133968261332f565b604082019050919050565b600060208201905081810360008301526133ba8161337e565b9050919050565b600081519050919050565b600081905092915050565b60005b838110156133f55780820151818401526020810190506133da565b60008484015250505050565b600061340c826133c1565b61341681856133cc565b93506134268185602086016133d7565b80840191505092915050565b600061343e8284613401565b915081905092915050565b7f416464726573733a2063616c6c20746f206e6f6e2d636f6e7472616374000000600082015250565b600061347f601d83612433565b915061348a82613449565b602082019050919050565b600060208201905081810360008301526134ae81613472565b9050919050565b600081519050919050565b6000601f19601f8301169050919050565b60006134dc826134b5565b6134e68185612433565b93506134f68185602086016133d7565b6134ff816134c0565b840191505092915050565b6000602082019050818103600083015261352481846134d1565b90509291505056fea26469706673582212200fadea5d4f7cd1ee622ea6e00a32a42f37723b316c76154a0c85aa8079be00f564736f6c63430008110033",
  "linkReferences": {},
  "deployedLinkReferences": {}
}